{
  "contractName": "MedicineRegistry",
  "abi": [
    {
      "inputs": [],
      "stateMutability": "nonpayable",
      "type": "constructor"
    },
    {
      "anonymous": false,
      "inputs": [
        {
          "indexed": false,
          "internalType": "address",
          "name": "by",
          "type": "address"
        }
      ],
      "name": "ContractPaused",
      "type": "event"
    },
    {
      "anonymous": false,
      "inputs": [
        {
          "indexed": false,
          "internalType": "address",
          "name": "by",
          "type": "address"
        }
      ],
      "name": "ContractUnpaused",
      "type": "event"
    },
    {
      "anonymous": false,
      "inputs": [
        {
          "indexed": false,
          "internalType": "string",
          "name": "medicineId",
          "type": "string"
        },
        {
          "indexed": false,
          "internalType": "address",
          "name": "reporter",
          "type": "address"
        }
      ],
      "name": "FakeMedicineReported",
      "type": "event"
    },
    {
      "anonymous": false,
      "inputs": [
        {
          "indexed": false,
          "internalType": "address",
          "name": "manufacturer",
          "type": "address"
        },
        {
          "indexed": false,
          "internalType": "string",
          "name": "name",
          "type": "string"
        }
      ],
      "name": "ManufacturerRegistered",
      "type": "event"
    },
    {
      "anonymous": false,
      "inputs": [
        {
          "indexed": false,
          "internalType": "address",
          "name": "manufacturer",
          "type": "address"
        }
      ],
      "name": "ManufacturerVerified",
      "type": "event"
    },
    {
      "anonymous": false,
      "inputs": [
        {
          "indexed": false,
          "internalType": "string",
          "name": "medicineId",
          "type": "string"
        },
        {
          "indexed": false,
          "internalType": "string",
          "name": "name",
          "type": "string"
        },
        {
          "indexed": false,
          "internalType": "address",
          "name": "manufacturer",
          "type": "address"
        }
      ],
      "name": "MedicineRegistered",
      "type": "event"
    },
    {
      "anonymous": false,
      "inputs": [
        {
          "indexed": true,
          "internalType": "address",
          "name": "previousOwner",
          "type": "address"
        },
        {
          "indexed": true,
          "internalType": "address",
          "name": "newOwner",
          "type": "address"
        }
      ],
      "name": "OwnershipTransferInitiated",
      "type": "event"
    },
    {
      "anonymous": false,
      "inputs": [
        {
          "indexed": true,
          "internalType": "address",
          "name": "previousOwner",
          "type": "address"
        },
        {
          "indexed": true,
          "internalType": "address",
          "name": "newOwner",
          "type": "address"
        }
      ],
      "name": "OwnershipTransferred",
      "type": "event"
    },
    {
      "inputs": [],
      "name": "medicineCount",
      "outputs": [
        {
          "internalType": "uint256",
          "name": "",
          "type": "uint256"
        }
      ],
      "stateMutability": "view",
      "type": "function"
    },
    {
      "inputs": [],
      "name": "owner",
      "outputs": [
        {
          "internalType": "address",
          "name": "",
          "type": "address"
        }
      ],
      "stateMutability": "view",
      "type": "function"
    },
    {
      "inputs": [],
      "name": "paused",
      "outputs": [
        {
          "internalType": "bool",
          "name": "",
          "type": "bool"
        }
      ],
      "stateMutability": "view",
      "type": "function"
    },
    {
      "inputs": [],
      "name": "pendingOwner",
      "outputs": [
        {
          "internalType": "address",
          "name": "",
          "type": "address"
        }
      ],
      "stateMutability": "view",
      "type": "function"
    },
    {
      "inputs": [],
      "name": "verifiedManufacturerCount",
      "outputs": [
        {
          "internalType": "uint256",
          "name": "",
          "type": "uint256"
        }
      ],
      "stateMutability": "view",
      "type": "function"
    },
    {
      "inputs": [],
      "name": "pause",
      "outputs": [],
      "stateMutability": "nonpayable",
      "type": "function"
    },
    {
      "inputs": [],
      "name": "unpause",
      "outputs": [],
      "stateMutability": "nonpayable",
      "type": "function"
    },
    {
      "inputs": [
        {
          "internalType": "address",
          "name": "_newOwner",
          "type": "address"
        }
      ],
      "name": "transferOwnership",
      "outputs": [],
      "stateMutability": "nonpayable",
      "type": "function"
    },
    {
      "inputs": [],
      "name": "acceptOwnership",
      "outputs": [],
      "stateMutability": "nonpayable",
      "type": "function"
    },
    {
      "inputs": [
        {
          "internalType": "string",
          "name": "_name",
          "type": "string"
        },
        {
          "internalType": "string",
          "name": "_licenseNumber",
          "type": "string"
        }
      ],
      "name": "registerManufacturer",
      "outputs": [],
      "stateMutability": "nonpayable",
      "type": "function"
    },
    {
      "inputs": [
        {
          "internalType": "address",
          "name": "_manufacturer",
          "type": "address"
        }
      ],
      "name": "verifyManufacturer",
      "outputs": [],
      "stateMutability": "nonpayable",
      "type": "function"
    },
    {
      "inputs": [
        {
          "internalType": "string",
          "name": "_medicineId",
          "type": "string"
        },
        {
          "internalType": "string",
          "name": "_name",
          "type": "string"
        },
        {
          "internalType": "string",
          "name": "_batchNumber",
          "type": "string"
        },
        {
          "internalType": "uint256",
          "name": "_manufacturingDate",
          "type": "uint256"
        },
        {
          "internalType": "uint256",
          "name": "_expiryDate",
          "type": "uint256"
        },
        {
          "internalType": "string",
          "name": "_description",
          "type": "string"
        }
      ],
      "name": "registerMedicine",
      "outputs": [],
      "stateMutability": "nonpayable",
      "type": "function"
    },
    {
      "inputs": [
        {
          "internalType": "string",
          "name": "_medicineId",
          "type": "string"
        },
        {
          "internalType": "string",
          "name": "_name",
          "type": "string"
        },
        {
          "internalType": "string",
          "name": "_batchNumber",
          "type": "string"
        },
        {
          "internalType": "uint256",
          "name": "_manufacturingDate",
          "type": "uint256"
        },
        {
          "internalType": "uint256",
          "name": "_expiryDate",
          "type": "uint256"
        },
        {
          "internalType": "string",
          "name": "_description",
          "type": "string"
        }
      ],
      "name": "updateMedicine",
      "outputs": [],
      "stateMutability": "nonpayable",
      "type": "function"
    },
    {
      "inputs": [
        {
          "internalType": "string",
          "name": "_medicineId",
          "type": "string"
        }
      ],
      "name": "verifyMedicine",
      "outputs": [
        {
          "internalType": "bool",
          "name": "isVerified",
          "type": "bool"
        },
        {
          "internalType": "bool",
          "name": "isFakeReported",
          "type": "bool"
        },
        {
          "internalType": "string",
          "name": "medicineId",
          "type": "string"
        },
        {
          "internalType": "string",
          "name": "name",
          "type": "string"
        },
        {
          "internalType": "string",
          "name": "batchNumber",
          "type": "string"
        },
        {
          "internalType": "string",
          "name": "manufacturerName",
          "type": "string"
        },
        {
          "internalType": "uint256",
          "name": "manufacturingDate",
          "type": "uint256"
        },
        {
          "internalType": "uint256",
          "name": "expiryDate",
          "type": "uint256"
        },
        {
          "internalType": "uint256",
          "name": "reportCount",
          "type": "uint256"
        },
        {
          "internalType": "string",
          "name": "description",
          "type": "string"
        }
      ],
      "stateMutability": "view",
      "type": "function"
    },
    {
      "inputs": [
        {
          "internalType": "string",
          "name": "_medicineId",
          "type": "string"
        }
      ],
      "name": "reportFakeMedicine",
      "outputs": [],
      "stateMutability": "nonpayable",
      "type": "function"
    },
    {
      "inputs": [
        {
          "internalType": "address",
          "name": "_manufacturer",
          "type": "address"
        }
      ],
      "name": "getManufacturerInfo",
      "outputs": [
        {
          "internalType": "string",
          "name": "name",
          "type": "string"
        },
        {
          "internalType": "string",
          "name": "licenseNumber",
          "type": "string"
        },
        {
          "internalType": "bool",
          "name": "isVerified",
          "type": "bool"
        },
        {
          "internalType": "uint256",
          "name": "registrationDate",
          "type": "uint256"
        }
      ],
      "stateMutability": "view",
      "type": "function"
    },
    {
      "inputs": [],
      "name": "getMedicineCount",
      "outputs": [
        {
          "internalType": "uint256",
          "name": "",
          "type": "uint256"
        }
      ],
      "stateMutability": "view",
      "type": "function"
    },
    {
      "inputs": [],
      "name": "getVerifiedManufacturerCount",
      "outputs": [
        {
          "internalType": "uint256",
          "name": "",
          "type": "uint256"
        }
      ],
      "stateMutability": "view",
      "type": "function"
    }
  ],
  "bytecode": "0x60806040526006805460ff60a01b191690556000600781905560085534801561002757600080fd5b50600580546001600160a01b03191633179055611f15806100496000396000f3fe608060405234801561001057600080fd5b50600436106101165760003560e01c80638456cb59116100a2578063c82e268611610071578063c82e26861461021d578063d64a3d8b14610225578063e30c397814610238578063eadeb84c14610240578063f2fde38b1461024857610116565b80638456cb59146101c45780638da5cb5b146101cc578063984a6917146101e1578063c1b70eb9146101f457610116565b80634169eb16116100e95780634169eb16146101775780634dafd4901461018c5780635c975abb146101945780637428af82146101a957806379ba5097146101bc57610116565b8063043be2e41461011b5780632121ae5b1461014757806330b15caa1461015c5780633f4ba83a1461016f575b600080fd5b61012e6101293660046115ff565b61025b565b60405161013e949392919061190f565b60405180910390f35b61015a61015536600461162d565b610430565b005b61015a61016a366004611668565b6105ba565b61015a61072a565b61017f6107c4565b60405161013e9190611e0c565b61017f6107ca565b61019c6107d0565b60405161013e9190611803565b61015a6101b73660046116c9565b6107e0565b61015a610970565b61015a610a00565b6101d4610a97565b60405161013e91906117cb565b61015a6101ef3660046116c9565b610aa6565b61020761020236600461162d565b610e9b565b60405161013e9a9998979695949392919061180e565b61017f6112aa565b61015a6102333660046115ff565b6112b0565b6101d4611429565b61017f611438565b61015a6102563660046115ff565b61143e565b606080600080600060016000876001600160a01b03166001600160a01b031681526020019081526020016000206040518060a00160405290816000820180546102a390611e5d565b80601f01602080910402602001604051908101604052809291908181526020018280546102cf90611e5d565b801561031c5780601f106102f15761010080835404028352916020019161031c565b820191906000526020600020905b8154815290600101906020018083116102ff57829003601f168201915b5050505050815260200160018201805461033590611e5d565b80601f016020809104026020016040519081016040528092919081815260200182805461036190611e5d565b80156103ae5780601f10610383576101008083540402835291602001916103ae565b820191906000526020600020905b81548152906001019060200180831161039157829003601f168201915b5050509183525050600282015460ff90811615156020830152600383015460408301526004909201549091161515606090910152608081015190915061040f5760405162461bcd60e51b815260040161040690611c4d565b60405180910390fd5b80516020820151604083015160609093015191989097509195509350915050565b600654600160a01b900460ff161561045a5760405162461bcd60e51b815260040161040690611d32565b60048160405161046a91906117af565b9081526040519081900360200190205460ff166104995760405162461bcd60e51b815260040161040690611af7565b6003816040516104a991906117af565b9081526040805160209281900383019020336000908152925290205460ff16156104e55760405162461bcd60e51b815260040161040690611a42565b60016003826040516104f791906117af565b90815260408051602092819003830181203360009081529352908220805460ff1916931515939093179092559081906105319084906117af565b9081526020016040518091039020905060018160070160008282546105569190611e15565b9091555050600781015460031161057d5760068101805460ff60a81b1916600160a81b1790555b7f54189d8c83968ce3ffaa1650ad296ad7fc55cc7a0ac8f1e7f461c6cbf13830fd82336040516105ae9291906118a7565b60405180910390a15050565b600654600160a01b900460ff16156105e45760405162461bcd60e51b815260040161040690611d32565b60008251116106055760405162461bcd60e51b815260040161040690611994565b60008151116106265760405162461bcd60e51b815260040161040690611ac0565b3360009081526001602052604090206004015460ff16156106595760405162461bcd60e51b8152600401610406906119c2565b6040805160a0810182528381526020808201849052600082840181905242606084015260016080840181905233825282529290922081518051929391926106a392849201906114e5565b5060208281015180516106bc92600185019201906114e5565b5060408281015160028301805491151560ff1992831617905560608401516003840155608090930151600490920180549215159290931691909117909155517f3980e1c29ecf2bdfce4e2793ed6efcc338cb00238d58c95de9000480acc0caef906105ae90339085906117df565b6005546001600160a01b031633146107545760405162461bcd60e51b815260040161040690611d5e565b600654600160a01b900460ff1661077d5760405162461bcd60e51b815260040161040690611c1d565b6006805460ff60a01b191690556040517f5b65b0c1363b3003db9bcc5e1fd8805a6d6bf5bf6dc9d3431ee4494cd7d11766906107ba9033906117cb565b60405180910390a1565b60085490565b60075481565b600654600160a01b900460ff1681565b600654600160a01b900460ff161561080a5760405162461bcd60e51b815260040161040690611d32565b6000808760405161081b91906117af565b9081526020016040518091039020905060048760405161083b91906117af565b9081526040519081900360200190205460ff1661086a5760405162461bcd60e51b815260040161040690611af7565b60068101546001600160a01b031633146108965760405162461bcd60e51b8152600401610406906119f9565b60008651116108b75760405162461bcd60e51b815260040161040690611994565b60008551116108d85760405162461bcd60e51b815260040161040690611baf565b600084116108f85760405162461bcd60e51b815260040161040690611c7d565b8383116109175760405162461bcd60e51b815260040161040690611948565b855161092c90600183019060208901906114e5565b50845161094290600283019060208801906114e5565b506004810184905560058101839055815161096690600883019060208501906114e5565b5050505050505050565b6006546001600160a01b0316331461099a5760405162461bcd60e51b815260040161040690611cb4565b6006546005546040516001600160a01b0392831692909116907f8be0079c531659141344cd1fd0a4f28419497f9722a3daafe3b4186f6b6457e090600090a360068054600580546001600160a01b03199081166001600160a01b03841617909155169055565b6005546001600160a01b03163314610a2a5760405162461bcd60e51b815260040161040690611d5e565b600654600160a01b900460ff1615610a545760405162461bcd60e51b815260040161040690611d32565b6006805460ff60a01b1916600160a01b1790556040517f81990fd9a5c552b8e3677917d8a03c07678f0d2cb68f88b634aca2022e9bd19f906107ba9033906117cb565b6005546001600160a01b031681565b3360009081526002602052604090205460ff16610ad55760405162461bcd60e51b815260040161040690611b23565b600654600160a01b900460ff1615610aff5760405162461bcd60e51b815260040161040690611d32565b6000865111610b205760405162461bcd60e51b815260040161040690611be6565b6000855111610b415760405162461bcd60e51b815260040161040690611994565b6000845111610b625760405162461bcd60e51b815260040161040690611baf565b600486604051610b7291906117af565b9081526040519081900360200190205460ff1615610ba25760405162461bcd60e51b815260040161040690611a89565b60008311610bc25760405162461bcd60e51b815260040161040690611c7d565b828211610be15760405162461bcd60e51b815260040161040690611948565b604080516101808101825287815260208082018890528183018790523360009081526001909152919091208054606083019190610c1d90611e5d565b80601f0160208091040260200160405190810160405280929190818152602001828054610c4990611e5d565b8015610c965780601f10610c6b57610100808354040283529160200191610c96565b820191906000526020600020905b815481529060010190602001808311610c7957829003601f168201915b50505050508152602001848152602001838152602001336001600160a01b031681526020016001151581526020016000151581526020016000815260200182815260200142815250600087604051610cee91906117af565b90815260200160405180910390206000820151816000019080519060200190610d189291906114e5565b506020828101518051610d3192600185019201906114e5565b5060408201518051610d4d9160028401916020909101906114e5565b5060608201518051610d699160038401916020909101906114e5565b506080820151600482015560a0820151600582015560c082015160068201805460e08501516101008601511515600160a81b0260ff60a81b19911515600160a01b0260ff60a01b196001600160a01b039096166001600160a01b03199094169390931794909416919091171691909117905561012082015160078201556101408201518051610e029160088401916020909101906114e5565b5061016082015181600901559050506001600487604051610e2391906117af565b908152604051908190036020019020805491151560ff1990921691909117905560078054906000610e5383611e98565b91905055507fa6e8070d7b2c0023a26338c5867080b2ce5c9ac9c2119ad5c5b41dcd2c09abbf868633604051610e8b939291906118d1565b60405180910390a1505050505050565b600080606080606080600080600060606000808c604051610ebc91906117af565b908152602001604051809103902060405180610180016040529081600082018054610ee690611e5d565b80601f0160208091040260200160405190810160405280929190818152602001828054610f1290611e5d565b8015610f5f5780601f10610f3457610100808354040283529160200191610f5f565b820191906000526020600020905b815481529060010190602001808311610f4257829003601f168201915b50505050508152602001600182018054610f7890611e5d565b80601f0160208091040260200160405190810160405280929190818152602001828054610fa490611e5d565b8015610ff15780601f10610fc657610100808354040283529160200191610ff1565b820191906000526020600020905b815481529060010190602001808311610fd457829003601f168201915b5050505050815260200160028201805461100a90611e5d565b80601f016020809104026020016040519081016040528092919081815260200182805461103690611e5d565b80156110835780601f1061105857610100808354040283529160200191611083565b820191906000526020600020905b81548152906001019060200180831161106657829003601f168201915b5050505050815260200160038201805461109c90611e5d565b80601f01602080910402602001604051908101604052809291908181526020018280546110c890611e5d565b80156111155780601f106110ea57610100808354040283529160200191611115565b820191906000526020600020905b8154815290600101906020018083116110f857829003601f168201915b5050509183525050600482015460208201526005820154604082015260068201546001600160a01b038116606083015260ff600160a01b8204811615156080840152600160a81b90910416151560a0820152600782015460c082015260088201805460e09092019161118690611e5d565b80601f01602080910402602001604051908101604052809291908181526020018280546111b290611e5d565b80156111ff5780601f106111d4576101008083540402835291602001916111ff565b820191906000526020600020905b8154815290600101906020018083116111e257829003601f168201915b50505050508152602001600982015481525050905060048c60405161122491906117af565b9081526040519081900360200190205460ff166112535760405162461bcd60e51b815260040161040690611af7565b8060e00151816101000151826000015183602001518460400151856060015186608001518760a001518861012001518961014001519a509a509a509a509a509a509a509a509a509a50509193959799509193959799565b60085481565b6005546001600160a01b031633146112da5760405162461bcd60e51b815260040161040690611d5e565b600654600160a01b900460ff16156113045760405162461bcd60e51b815260040161040690611d32565b6001600160a01b03811661132a5760405162461bcd60e51b815260040161040690611b78565b6001600160a01b03811660009081526001602052604090206004015460ff166113655760405162461bcd60e51b815260040161040690611cfb565b6001600160a01b03811660009081526001602052604090206002015460ff16156113a15760405162461bcd60e51b815260040161040690611dd5565b6001600160a01b03811660009081526001602081815260408084206002908101805460ff199081168617909155925283208054909116909117905560088054916113ea83611e98565b91905055507fcde2a9ca5eb4c24ecfcb6a38f2bc9aaa372c71e2a57e9acc551d6ddf832695998160405161141e91906117cb565b60405180910390a150565b6006546001600160a01b031681565b60075490565b6005546001600160a01b031633146114685760405162461bcd60e51b815260040161040690611d5e565b6001600160a01b03811661148e5760405162461bcd60e51b815260040161040690611da0565b600680546001600160a01b0319166001600160a01b038381169190911791829055600554604051928216929116907fb150023a879fd806e3599b6ca8ee3b60f0e360ab3846d128d67ebce1a391639a90600090a350565b8280546114f190611e5d565b90600052602060002090601f0160209004810192826115135760008555611559565b82601f1061152c57805160ff1916838001178555611559565b82800160010185558215611559579182015b8281111561155957825182559160200191906001019061153e565b50611565929150611569565b5090565b5b80821115611565576000815560010161156a565b600082601f83011261158e578081fd5b813567ffffffffffffffff808211156115a9576115a9611ec9565b604051601f8301601f1916810160200182811182821017156115cd576115cd611ec9565b6040528281528483016020018610156115e4578384fd5b82602086016020830137918201602001929092529392505050565b600060208284031215611610578081fd5b81356001600160a01b0381168114611626578182fd5b9392505050565b60006020828403121561163e578081fd5b813567ffffffffffffffff811115611654578182fd5b6116608482850161157e565b949350505050565b6000806040838503121561167a578081fd5b823567ffffffffffffffff80821115611691578283fd5b61169d8683870161157e565b935060208501359150808211156116b2578283fd5b506116bf8582860161157e565b9150509250929050565b60008060008060008060c087890312156116e1578182fd5b863567ffffffffffffffff808211156116f8578384fd5b6117048a838b0161157e565b97506020890135915080821115611719578384fd5b6117258a838b0161157e565b9650604089013591508082111561173a578384fd5b6117468a838b0161157e565b9550606089013594506080890135935060a0890135915080821115611769578283fd5b5061177689828a0161157e565b9150509295509295509295565b6000815180845261179b816020860160208601611e2d565b601f01601f19169290920160200192915050565b600082516117c1818460208701611e2d565b9190910192915050565b6001600160a01b0391909116815260200190565b6001600160a01b038316815260406020820181905260009061166090830184611783565b901515815260200190565b60006101408c151583528b151560208401528060408401526118328184018c611783565b90508281036060840152611846818b611783565b9050828103608084015261185a818a611783565b905082810360a084015261186e8189611783565b90508660c08401528560e0840152846101008401528281036101208401526118968185611783565b9d9c50505050505050505050505050565b6000604082526118ba6040830185611783565b905060018060a01b03831660208301529392505050565b6000606082526118e46060830186611783565b82810360208401526118f68186611783565b91505060018060a01b0383166040830152949350505050565b6000608082526119226080830187611783565b82810360208401526119348187611783565b941515604084015250506060015292915050565b6020808252602c908201527f4578706972792064617465206d757374206265206166746572206d616e75666160408201526b63747572696e67206461746560a01b606082015260800190565b6020808252601490820152734e616d652063616e6e6f7420626520656d70747960601b604082015260600190565b6020808252601f908201527f4d616e75666163747572657220616c7265616479207265676973746572656400604082015260600190565b60208082526029908201527f4f6e6c7920746865206f726967696e616c206d616e7566616374757265722063604082015268616e2075706461746560b81b606082015260800190565b60208082526027908201527f596f75206861766520616c7265616479207265706f727465642074686973206d60408201526665646963696e6560c81b606082015260800190565b6020808252601a908201527f4d65646963696e6520494420616c726561647920657869737473000000000000604082015260600190565b6020808252601e908201527f4c6963656e7365206e756d6265722063616e6e6f7420626520656d7074790000604082015260600190565b6020808252601290820152711359591a58da5b99481b9bdd08199bdd5b9960721b604082015260600190565b60208082526035908201527f4f6e6c7920617574686f72697a6564206d616e7566616374757265727320636160408201527437103832b93337b936903a3434b99030b1ba34b7b760591b606082015260800190565b6020808252601c908201527f496e76616c6964206d616e756661637475726572206164647265737300000000604082015260600190565b6020808252601c908201527f4261746368206e756d6265722063616e6e6f7420626520656d70747900000000604082015260600190565b6020808252601b908201527f4d65646963696e652049442063616e6e6f7420626520656d7074790000000000604082015260600190565b60208082526016908201527510dbdb9d1c9858dd081a5cc81b9bdd081c185d5cd95960521b604082015260600190565b60208082526016908201527513585b9d599858dd1d5c995c881b9bdd08199bdd5b9960521b604082015260600190565b6020808252601a908201527f496e76616c6964206d616e75666163747572696e672064617465000000000000604082015260600190565b60208082526027908201527f4f6e6c792070656e64696e67206f776e65722063616e20616363657074206f7760408201526606e6572736869760cc1b606082015260800190565b6020808252601b908201527f4d616e756661637475726572206e6f7420726567697374657265640000000000604082015260600190565b60208082526012908201527110dbdb9d1c9858dd081a5cc81c185d5cd95960721b604082015260600190565b60208082526022908201527f4f6e6c79206f776e65722063616e20706572666f726d2074686973206163746960408201526137b760f11b606082015260800190565b6020808252818101527f4e6577206f776e65722063616e6e6f74206265207a65726f2061646472657373604082015260600190565b6020808252601d908201527f4d616e75666163747572657220616c7265616479207665726966696564000000604082015260600190565b90815260200190565b60008219821115611e2857611e28611eb3565b500190565b60005b83811015611e48578181015183820152602001611e30565b83811115611e57576000848401525b50505050565b600281046001821680611e7157607f821691505b60208210811415611e9257634e487b7160e01b600052602260045260246000fd5b50919050565b6000600019821415611eac57611eac611eb3565b5060010190565b634e487b7160e01b600052601160045260246000fd5b634e487b7160e01b600052604160045260246000fdfea264697066735822122030c0d49d7ae245e4223ff225b3beca5882e53ca16adff3d10d45d5501d776f7c64736f6c63430008000033",
  "immutableReferences": {},
  "source": "// SPDX-License-Identifier: MIT\r\npragma solidity ^0.8.0;\r\n\r\n/**\r\n * @title MedicineRegistry\r\n * @dev A contract for registering and verifying medicines and manufacturers\r\n */\r\ncontract MedicineRegistry {\r\n\r\n    struct Medicine {\r\n        string medicineId;\r\n        string name;\r\n        string batchNumber;\r\n        string manufacturerName;\r\n        uint manufacturingDate;\r\n        uint expiryDate;\r\n        address manufacturer;\r\n        bool isVerified;\r\n        bool isFakeReported;\r\n        uint reportCount;\r\n        string description;\r\n        uint registrationTimestamp;\r\n    }\r\n\r\n    struct Manufacturer {\r\n        string name;\r\n        string licenseNumber;\r\n        bool isVerified;\r\n        uint registrationDate;\r\n        bool exists;\r\n    }\r\n\r\n    // Main mappings for data storage\r\n    mapping(string => Medicine) private medicines;\r\n    mapping(address => Manufacturer) private manufacturers;\r\n    mapping(address => bool) private authorizedManufacturers;\r\n    \r\n    // Additional mappings for reporting and data validation\r\n    mapping(string => mapping(address => bool)) private medicineReporters;\r\n    mapping(string => bool) private registeredMedicineIds;\r\n    \r\n    // Contract administration\r\n    address public owner;\r\n    address public pendingOwner;\r\n    bool public paused = false;\r\n    \r\n    // Medicine stats\r\n    uint public medicineCount = 0;\r\n    uint public verifiedManufacturerCount = 0;\r\n    \r\n    // Events\r\n    event MedicineRegistered(string medicineId, string name, address manufacturer);\r\n    event FakeMedicineReported(string medicineId, address reporter);\r\n    event ManufacturerRegistered(address manufacturer, string name);\r\n    event ManufacturerVerified(address manufacturer);\r\n    event OwnershipTransferInitiated(address indexed previousOwner, address indexed newOwner);\r\n    event OwnershipTransferred(address indexed previousOwner, address indexed newOwner);\r\n    event ContractPaused(address by);\r\n    event ContractUnpaused(address by);\r\n\r\n    // Modifiers\r\n    modifier onlyOwner() {\r\n        require(msg.sender == owner, \"Only owner can perform this action\");\r\n        _;\r\n    }\r\n    \r\n    modifier onlyAuthorizedManufacturer() {\r\n        require(authorizedManufacturers[msg.sender], \"Only authorized manufacturers can perform this action\");\r\n        _;\r\n    }\r\n    \r\n    modifier whenNotPaused() {\r\n        require(!paused, \"Contract is paused\");\r\n        _;\r\n    }\r\n    \r\n    modifier whenPaused() {\r\n        require(paused, \"Contract is not paused\");\r\n        _;\r\n    }\r\n\r\n    constructor() {\r\n        owner = msg.sender;\r\n    }\r\n    \r\n    /**\r\n     * @dev Pause the contract - emergency stop functionality\r\n     */\r\n    function pause() public onlyOwner whenNotPaused {\r\n        paused = true;\r\n        emit ContractPaused(msg.sender);\r\n    }\r\n    \r\n    /**\r\n     * @dev Unpause the contract - return to normal state\r\n     */\r\n    function unpause() public onlyOwner whenPaused {\r\n        paused = false;\r\n        emit ContractUnpaused(msg.sender);\r\n    }\r\n    \r\n    /**\r\n     * @dev Starts the ownership transfer process\r\n     * @param _newOwner The address to transfer ownership to\r\n     */\r\n    function transferOwnership(address _newOwner) public onlyOwner {\r\n        require(_newOwner != address(0), \"New owner cannot be zero address\");\r\n        pendingOwner = _newOwner;\r\n        emit OwnershipTransferInitiated(owner, pendingOwner);\r\n    }\r\n    \r\n    /**\r\n     * @dev Completes the ownership transfer process\r\n     * Must be called by the pending owner\r\n     */\r\n    function acceptOwnership() public {\r\n        require(msg.sender == pendingOwner, \"Only pending owner can accept ownership\");\r\n        emit OwnershipTransferred(owner, pendingOwner);\r\n        owner = pendingOwner;\r\n        pendingOwner = address(0);\r\n    }\r\n\r\n    /**\r\n     * @dev Register a new manufacturer\r\n     * @param _name The name of the manufacturer\r\n     * @param _licenseNumber The license number of the manufacturer\r\n     */\r\n    function registerManufacturer(string memory _name, string memory _licenseNumber) public whenNotPaused {\r\n        // Input validation\r\n        require(bytes(_name).length > 0, \"Name cannot be empty\");\r\n        require(bytes(_licenseNumber).length > 0, \"License number cannot be empty\");\r\n        require(!manufacturers[msg.sender].exists, \"Manufacturer already registered\");\r\n        \r\n        manufacturers[msg.sender] = Manufacturer({\r\n            name: _name,\r\n            licenseNumber: _licenseNumber,\r\n            isVerified: false,\r\n            registrationDate: block.timestamp,\r\n            exists: true\r\n        });\r\n        \r\n        emit ManufacturerRegistered(msg.sender, _name);\r\n    }\r\n    \r\n    /**\r\n     * @dev Verify a manufacturer (only owner can do this)\r\n     * @param _manufacturer Address of the manufacturer to verify\r\n     */\r\n    function verifyManufacturer(address _manufacturer) public onlyOwner whenNotPaused {\r\n        require(_manufacturer != address(0), \"Invalid manufacturer address\");\r\n        require(manufacturers[_manufacturer].exists, \"Manufacturer not registered\");\r\n        require(!manufacturers[_manufacturer].isVerified, \"Manufacturer already verified\");\r\n        \r\n        manufacturers[_manufacturer].isVerified = true;\r\n        authorizedManufacturers[_manufacturer] = true;\r\n        verifiedManufacturerCount++;\r\n        \r\n        emit ManufacturerVerified(_manufacturer);\r\n    }\r\n\r\n    /**\r\n     * @dev Register a new medicine (only verified manufacturers)\r\n     * @param _medicineId Unique ID for the medicine\r\n     * @param _name Name of the medicine\r\n     * @param _batchNumber Batch number\r\n     * @param _manufacturingDate Manufacturing date (Unix timestamp)\r\n     * @param _expiryDate Expiry date (Unix timestamp)\r\n     * @param _description Optional description\r\n     */\r\n    function registerMedicine(\r\n        string memory _medicineId, \r\n        string memory _name, \r\n        string memory _batchNumber,\r\n        uint _manufacturingDate,\r\n        uint _expiryDate,\r\n        string memory _description\r\n    ) public onlyAuthorizedManufacturer whenNotPaused {\r\n        // Input validation\r\n        require(bytes(_medicineId).length > 0, \"Medicine ID cannot be empty\");\r\n        require(bytes(_name).length > 0, \"Name cannot be empty\");\r\n        require(bytes(_batchNumber).length > 0, \"Batch number cannot be empty\");\r\n        require(!registeredMedicineIds[_medicineId], \"Medicine ID already exists\");\r\n        require(_manufacturingDate > 0, \"Invalid manufacturing date\");\r\n        require(_expiryDate > _manufacturingDate, \"Expiry date must be after manufacturing date\");\r\n        \r\n        medicines[_medicineId] = Medicine({\r\n            medicineId: _medicineId,\r\n            name: _name,\r\n            batchNumber: _batchNumber,\r\n            manufacturerName: manufacturers[msg.sender].name,\r\n            manufacturingDate: _manufacturingDate,\r\n            expiryDate: _expiryDate,\r\n            manufacturer: msg.sender,\r\n            isVerified: true,\r\n            isFakeReported: false,\r\n            reportCount: 0,\r\n            description: _description,\r\n            registrationTimestamp: block.timestamp\r\n        });\r\n        \r\n        // Mark medicine ID as registered\r\n        registeredMedicineIds[_medicineId] = true;\r\n        medicineCount++;\r\n\r\n        emit MedicineRegistered(_medicineId, _name, msg.sender);\r\n    }\r\n    \r\n    /**\r\n     * @dev Update medicine information (only the original manufacturer)\r\n     * @param _medicineId ID of the medicine to update\r\n     * @param _name Updated name\r\n     * @param _batchNumber Updated batch number\r\n     * @param _manufacturingDate Updated manufacturing date\r\n     * @param _expiryDate Updated expiry date\r\n     * @param _description Updated description\r\n     */\r\n    function updateMedicine(\r\n        string memory _medicineId, \r\n        string memory _name, \r\n        string memory _batchNumber,\r\n        uint _manufacturingDate,\r\n        uint _expiryDate,\r\n        string memory _description\r\n    ) public whenNotPaused {\r\n        // Get existing medicine data\r\n        Medicine storage medicine = medicines[_medicineId];\r\n        \r\n        // Validations\r\n        require(registeredMedicineIds[_medicineId], \"Medicine not found\");\r\n        require(medicine.manufacturer == msg.sender, \"Only the original manufacturer can update\");\r\n        require(bytes(_name).length > 0, \"Name cannot be empty\");\r\n        require(bytes(_batchNumber).length > 0, \"Batch number cannot be empty\");\r\n        require(_manufacturingDate > 0, \"Invalid manufacturing date\");\r\n        require(_expiryDate > _manufacturingDate, \"Expiry date must be after manufacturing date\");\r\n        \r\n        // Update the medicine info\r\n        medicine.name = _name;\r\n        medicine.batchNumber = _batchNumber;\r\n        medicine.manufacturingDate = _manufacturingDate;\r\n        medicine.expiryDate = _expiryDate;\r\n        medicine.description = _description;\r\n    }\r\n\r\n    /**\r\n     * @dev Verify a medicine's authenticity\r\n     * @param _medicineId The ID of the medicine to verify\r\n     * @return isVerified Boolean indicating if the medicine is verified\r\n     * @return isFakeReported Boolean indicating if the medicine was reported as fake\r\n     * @return medicineId String ID of the medicine\r\n     * @return name String name of the medicine\r\n     * @return batchNumber String batch number of the medicine\r\n     * @return manufacturerName String name of the manufacturer\r\n     * @return manufacturingDate Uint timestamp of manufacturing date\r\n     * @return expiryDate Uint timestamp of expiry date\r\n     * @return reportCount Uint number of fake reports\r\n     * @return description String description of the medicine\r\n     */\r\n    function verifyMedicine(string memory _medicineId) public view returns (\r\n        bool isVerified, \r\n        bool isFakeReported, \r\n        string memory medicineId, \r\n        string memory name,\r\n        string memory batchNumber,\r\n        string memory manufacturerName,\r\n        uint manufacturingDate,\r\n        uint expiryDate,\r\n        uint reportCount,\r\n        string memory description\r\n    ) {\r\n        Medicine memory med = medicines[_medicineId];\r\n        require(registeredMedicineIds[_medicineId], \"Medicine not found\");\r\n        \r\n        return (\r\n            med.isVerified, \r\n            med.isFakeReported, \r\n            med.medicineId, \r\n            med.name,\r\n            med.batchNumber,\r\n            med.manufacturerName,\r\n            med.manufacturingDate,\r\n            med.expiryDate,\r\n            med.reportCount,\r\n            med.description\r\n        );\r\n    }\r\n\r\n    /**\r\n     * @dev Report a medicine as potentially fake\r\n     * @param _medicineId The ID of the medicine to report\r\n     */\r\n    function reportFakeMedicine(string memory _medicineId) public whenNotPaused {\r\n        require(registeredMedicineIds[_medicineId], \"Medicine not found\");\r\n        \r\n        // Prevent duplicate reports from the same address\r\n        require(!medicineReporters[_medicineId][msg.sender], \"You have already reported this medicine\");\r\n        \r\n        // Mark this address as having reported this medicine\r\n        medicineReporters[_medicineId][msg.sender] = true;\r\n        \r\n        // Update medicine data\r\n        Medicine storage med = medicines[_medicineId];\r\n        med.reportCount += 1;\r\n        \r\n        // If there are 3 or more reports, mark as fake\r\n        if (med.reportCount >= 3) {\r\n            med.isFakeReported = true;\r\n        }\r\n\r\n        emit FakeMedicineReported(_medicineId, msg.sender);\r\n    }\r\n    \r\n    /**\r\n     * @dev Get detailed info about a manufacturer\r\n     * @param _manufacturer The address of the manufacturer\r\n     * @return name String name of the manufacturer\r\n     * @return licenseNumber String license number of the manufacturer\r\n     * @return isVerified Boolean indicating if the manufacturer is verified\r\n     * @return registrationDate Uint timestamp of registration date\r\n     */\r\n    function getManufacturerInfo(address _manufacturer) public view returns (\r\n        string memory name,\r\n        string memory licenseNumber,\r\n        bool isVerified,\r\n        uint registrationDate\r\n    ) {\r\n        Manufacturer memory manufacturer = manufacturers[_manufacturer];\r\n        require(manufacturer.exists, \"Manufacturer not found\");\r\n        \r\n        return (\r\n            manufacturer.name,\r\n            manufacturer.licenseNumber,\r\n            manufacturer.isVerified,\r\n            manufacturer.registrationDate\r\n        );\r\n    }\r\n    \r\n    /**\r\n     * @dev Get the total number of medicines registered\r\n     * @return Total count of registered medicines\r\n     */\r\n    function getMedicineCount() public view returns (uint) {\r\n        return medicineCount;\r\n    }\r\n    \r\n    /**\r\n     * @dev Get the total number of verified manufacturers\r\n     * @return Total count of verified manufacturers\r\n     */\r\n    function getVerifiedManufacturerCount() public view returns (uint) {\r\n        return verifiedManufacturerCount;\r\n    }\r\n}\r\n",
  "sourcePath": "D:\\sem 4\\swe oroj f\\software assignment project\\blockchain\\contracts\\MedicineRegistry.sol",
  "compiler": {
    "name": "solc",
    "version": "0.8.0+commit.c7dfd78e.Emscripten.clang"
  },
  "schemaVersion": "3.4.16",
  "updatedAt": "2025-05-28T17:44:52.882Z",
  "devdoc": {
    "details": "A contract for registering and verifying medicines and manufacturers",
    "kind": "dev",
    "methods": {
      "acceptOwnership()": {
        "details": "Completes the ownership transfer process Must be called by the pending owner"
      },
      "getManufacturerInfo(address)": {
        "details": "Get detailed info about a manufacturer",
        "params": {
          "_manufacturer": "The address of the manufacturer"
        },
        "returns": {
          "isVerified": "Boolean indicating if the manufacturer is verified",
          "licenseNumber": "String license number of the manufacturer",
          "name": "String name of the manufacturer",
          "registrationDate": "Uint timestamp of registration date"
        }
      },
      "getMedicineCount()": {
        "details": "Get the total number of medicines registered",
        "returns": {
          "_0": "Total count of registered medicines"
        }
      },
      "getVerifiedManufacturerCount()": {
        "details": "Get the total number of verified manufacturers",
        "returns": {
          "_0": "Total count of verified manufacturers"
        }
      },
      "pause()": {
        "details": "Pause the contract - emergency stop functionality"
      },
      "registerManufacturer(string,string)": {
        "details": "Register a new manufacturer",
        "params": {
          "_licenseNumber": "The license number of the manufacturer",
          "_name": "The name of the manufacturer"
        }
      },
      "registerMedicine(string,string,string,uint256,uint256,string)": {
        "details": "Register a new medicine (only verified manufacturers)",
        "params": {
          "_batchNumber": "Batch number",
          "_description": "Optional description",
          "_expiryDate": "Expiry date (Unix timestamp)",
          "_manufacturingDate": "Manufacturing date (Unix timestamp)",
          "_medicineId": "Unique ID for the medicine",
          "_name": "Name of the medicine"
        }
      },
      "reportFakeMedicine(string)": {
        "details": "Report a medicine as potentially fake",
        "params": {
          "_medicineId": "The ID of the medicine to report"
        }
      },
      "transferOwnership(address)": {
        "details": "Starts the ownership transfer process",
        "params": {
          "_newOwner": "The address to transfer ownership to"
        }
      },
      "unpause()": {
        "details": "Unpause the contract - return to normal state"
      },
      "updateMedicine(string,string,string,uint256,uint256,string)": {
        "details": "Update medicine information (only the original manufacturer)",
        "params": {
          "_batchNumber": "Updated batch number",
          "_description": "Updated description",
          "_expiryDate": "Updated expiry date",
          "_manufacturingDate": "Updated manufacturing date",
          "_medicineId": "ID of the medicine to update",
          "_name": "Updated name"
        }
      },
      "verifyManufacturer(address)": {
        "details": "Verify a manufacturer (only owner can do this)",
        "params": {
          "_manufacturer": "Address of the manufacturer to verify"
        }
      },
      "verifyMedicine(string)": {
        "details": "Verify a medicine's authenticity",
        "params": {
          "_medicineId": "The ID of the medicine to verify"
        },
        "returns": {
          "batchNumber": "String batch number of the medicine",
          "description": "String description of the medicine",
          "expiryDate": "Uint timestamp of expiry date",
          "isFakeReported": "Boolean indicating if the medicine was reported as fake",
          "isVerified": "Boolean indicating if the medicine is verified",
          "manufacturerName": "String name of the manufacturer",
          "manufacturingDate": "Uint timestamp of manufacturing date",
          "medicineId": "String ID of the medicine",
          "name": "String name of the medicine",
          "reportCount": "Uint number of fake reports"
        }
      }
    },
    "title": "MedicineRegistry",
    "version": 1
  },
  "userdoc": {
    "kind": "user",
    "methods": {},
    "version": 1
  }
}